{
  "contractName": "TokenSales",
  "abi": [
    {
      "constant": true,
      "inputs": [],
      "name": "nftAddress",
      "outputs": [
        {
          "name": "",
          "type": "address"
        }
      ],
      "payable": false,
      "stateMutability": "view",
      "type": "function"
    },
    {
      "constant": true,
      "inputs": [
        {
          "name": "",
          "type": "uint256"
        }
      ],
      "name": "tokenPrice",
      "outputs": [
        {
          "name": "",
          "type": "uint256"
        }
      ],
      "payable": false,
      "stateMutability": "view",
      "type": "function"
    },
    {
      "inputs": [
        {
          "name": "_tokenAddress",
          "type": "address"
        }
      ],
      "payable": false,
      "stateMutability": "nonpayable",
      "type": "constructor"
    },
    {
      "constant": false,
      "inputs": [
        {
          "name": "_tokenId",
          "type": "uint256"
        },
        {
          "name": "_price",
          "type": "uint256"
        }
      ],
      "name": "setForSale",
      "outputs": [],
      "payable": false,
      "stateMutability": "nonpayable",
      "type": "function"
    },
    {
      "constant": false,
      "inputs": [
        {
          "name": "_tokenId",
          "type": "uint256"
        }
      ],
      "name": "purchaseToken",
      "outputs": [],
      "payable": true,
      "stateMutability": "payable",
      "type": "function"
    },
    {
      "constant": false,
      "inputs": [
        {
          "name": "tokenIds",
          "type": "uint256[]"
        }
      ],
      "name": "removeTokenOnSale",
      "outputs": [],
      "payable": false,
      "stateMutability": "nonpayable",
      "type": "function"
    }
  ],
  "bytecode": "0x608060405234801561001057600080fd5b506040516020806107378339810180604052602081101561003057600080fd5b8101908080519060200190929190505050806000806101000a81548173ffffffffffffffffffffffffffffffffffffffff021916908373ffffffffffffffffffffffffffffffffffffffff160217905550506106a6806100916000396000f3fe60806040526004361061004a5760003560e01c806317fcfe221461004f57806350bc3605146100945780635bf8633a14610159578063c2db2c42146101b0578063d4ddce8a146101de575b600080fd5b34801561005b57600080fd5b506100926004803603604081101561007257600080fd5b81019080803590602001909291908035906020019092919050505061022d565b005b3480156100a057600080fd5b50610157600480360360208110156100b757600080fd5b81019080803590602001906401000000008111156100d457600080fd5b8201836020820111156100e657600080fd5b8035906020019184602083028401116401000000008311171561010857600080fd5b919080806020026020016040519081016040528093929190818152602001838360200280828437600081840152601f19601f8201169050808301925050505050505091929192905050506102fb565b005b34801561016557600080fd5b5061016e6103ff565b604051808273ffffffffffffffffffffffffffffffffffffffff1673ffffffffffffffffffffffffffffffffffffffff16815260200191505060405180910390f35b6101dc600480360360208110156101c657600080fd5b8101908080359060200190929190505050610424565b005b3480156101ea57600080fd5b506102176004803603602081101561020157600080fd5b8101908080359060200190929190505050610662565b6040518082815260200191505060405180910390f35b60008060009054906101000a900473ffffffffffffffffffffffffffffffffffffffff1673ffffffffffffffffffffffffffffffffffffffff16636352211e846040518263ffffffff1660e01b81526004018082815260200191505060206040518083038186803b1580156102a157600080fd5b505afa1580156102b5573d6000803e3d6000fd5b505050506040513d60208110156102cb57600080fd5b81019080805190602001909291905050509050816001600085815260200190815260200160002081905550505050565b60008090505b81518110156103fb57600082828151811061031857fe5b6020026020010151905060008060009054906101000a900473ffffffffffffffffffffffffffffffffffffffff1673ffffffffffffffffffffffffffffffffffffffff16636352211e836040518263ffffffff1660e01b81526004018082815260200191505060206040518083038186803b15801561039657600080fd5b505afa1580156103aa573d6000803e3d6000fd5b505050506040513d60208110156103c057600080fd5b810190808051906020019092919050505090506000600160008481526020019081526020016000208190555050508080600101915050610301565b5050565b6000809054906101000a900473ffffffffffffffffffffffffffffffffffffffff1681565b60006001600083815260200190815260200160002054905060008060009054906101000a900473ffffffffffffffffffffffffffffffffffffffff1673ffffffffffffffffffffffffffffffffffffffff16636352211e846040518263ffffffff1660e01b81526004018082815260200191505060206040518083038186803b1580156104b057600080fd5b505afa1580156104c4573d6000803e3d6000fd5b505050506040513d60208110156104da57600080fd5b8101908080519060200190929190505050905060008173ffffffffffffffffffffffffffffffffffffffff1690508073ffffffffffffffffffffffffffffffffffffffff166108fc349081150290604051600060405180830381858888f1935050505015801561054e573d6000803e3d6000fd5b506000809054906101000a900473ffffffffffffffffffffffffffffffffffffffff1673ffffffffffffffffffffffffffffffffffffffff166342842e0e8333876040518463ffffffff1660e01b8152600401808473ffffffffffffffffffffffffffffffffffffffff1673ffffffffffffffffffffffffffffffffffffffff1681526020018373ffffffffffffffffffffffffffffffffffffffff1673ffffffffffffffffffffffffffffffffffffffff1681526020018281526020019350505050600060405180830381600087803b15801561062b57600080fd5b505af115801561063f573d6000803e3d6000fd5b505050506000600160008681526020019081526020016000208190555050505050565b6001602052806000526040600020600091509050548156fea165627a7a723058208e3075234f0798145f473b888112c8a7069586dc4f8a4bc22b2b33c3ebe077e80029",
  "source": "pragma solidity >0.5.0;\r\n//SPDX-License-Identifier: UNLICENSED\r\n\r\nimport \"openzeppelin-solidity/contracts/token/ERC721/ERC721Full.sol\";\r\n\r\ncontract TokenSales {\r\n    ERC721Full public nftAddress;\r\n    mapping(uint256 => uint256) public tokenPrice;\r\n\r\n    constructor(address _tokenAddress) public {\r\n        nftAddress = ERC721Full(_tokenAddress);\r\n    }\r\n\r\n    function setForSale(uint256 _tokenId, uint256 _price) public {\r\n        address tokenOwner = nftAddress.ownerOf(_tokenId);\r\n\r\n        tokenPrice[_tokenId] = _price;\r\n    }\r\n\r\n    function purchaseToken(uint256 _tokenId) public payable {\r\n        uint256 price = tokenPrice[_tokenId];\r\n        address tokenSeller = nftAddress.ownerOf(_tokenId);\r\n\r\n        address payable payableTokenSeller = address(uint256(tokenSeller));\r\n        payableTokenSeller.transfer(msg.value);\r\n        nftAddress.safeTransferFrom(tokenSeller, msg.sender, _tokenId);\r\n        tokenPrice[_tokenId] = 0;\r\n    }\r\n\r\n    function removeTokenOnSale(uint256[] memory tokenIds) public {\r\n        for (uint256 i = 0; i < tokenIds.length; i++) {\r\n            uint256 tokenId = tokenIds[i];\r\n            address tokenSeller = nftAddress.ownerOf(tokenId);\r\n\r\n            tokenPrice[tokenId] = 0;\r\n        }\r\n    }\r\n}\r\n",
  "sourcePath": "C:/Users/SELAB/Documents/xtwiceblockchain/X_TWICE_FrontEnd/contracts/TokenSales.sol",
  "compiler": {
    "name": "solc",
    "version": "0.5.8+commit.23d335f2.Emscripten.clang"
  },
  "schemaVersion": "3.0.11",
  "updatedAt": "2021-09-09T05:28:05.322Z",
  "devdoc": {
    "methods": {}
  },
  "userdoc": {
    "methods": {}
  }
}